:100000000C946D030C949E030C949E030C949E031D
:100010000C949E030C949E030C949E030C949E03DC
:100020000C949E030C949E030C949E030C949E03CC
:100030000C949E030C949E030C949E030C949E03BC
:100040000C949E030C949E030C949E030C949E03AC
:100050000C949E030C949E030C949E030C941D47D9
:100060000C949E030C94413E0C94173E0C949E03FA
:100070000C949E030C949E030C949E030C949E037C
:100080000C949E030C949E030C949E030C949E036C
:100090000C949E030C949E030C949E030C94462A8D
:1000A0000C949E030C949E030C949E030C949E034C
:1000B0000C949E030C949E030C949E030C949E033C
:1000C0000C949E030C949E030C949E030C949E032C
:1000D0000C949E030C949E030C949E030C949E031C
:1000E0000C949E03B851F751F751F751F751F7515E
:1000F000F751B251F751F751F751F751F751F75105
:100100009451A251A451A651A851AA51AC51AE513B
:10011000B051F751F751F751F751F751F751F751E6
:10012000C251D851E2511124142417243424262416
:100130002924F124AE25B526E245E545D445D84528
:10014000DE451C46E945ED45F345F745FB450146CF
:10015000054609461C460F4613461746072C7AA546
:10016000BA6CC590DA3B9365FC8BBC53F810FD3C30
:100170005692834DBD879D3AB63DCBC9BF5BBE73DA
:10018000DA0FC93F05A84CCDB2D44EB93836A90212
:100190000C50B9918688083CA6AAAA2ABE00000085
:1001A000803F0664EC1B3C04BC163E3BE5B93CC9F1
:1001B0003C37C29E5A3D660498083EEA69AAAA3EA8
:1001C000000000803F000C94B5260C94D4450C949C
:1001D000AF280C94B8510C94883C0C94BF280C9414
:1001E00013460C940F460C94E2510C94E83B0C948B
:1001F000AC510C94D22C0C943C350C941C460C94B1
:10020000ED450C94D93B0C943B290C943A2D0C945D
:1002100001460C94AA510C94D8510C946A5C0C942D
:10022000A8510C9486570C94DB280C94F3450C943D
:10023000FB450C94F1240C945C280C94AC2C0C948D
:100240003A290C9405460C9414240C94AE510C9449
:10025000B0510C94E9450C9417460C94DE450C946F
:100260000B290C94D3280C9417240C94413C0C9427
:10027000A6510C9409460C9411240C94AE250C94B0
:10028000A2510C94E5450C94D8450C94C2510C94A1
:10029000B0280C943E290C9434240C94F7510C94FF
:1002A00029240C9426240C9442290C94DF2B0C94C2
:1002B0005B280C94B2510C948B2C0C9470280C94E9
:1002C0009E1B0C94E2450C94FC3B0C940A3C0C9451
:1002D000F7450C94AE3B0C9494510C94A4512D50C2
:1002E0006172616D657465722053656C65637465D8
:1002F000642D002D2D456E7465722023506172614E
:100300006D657465722D2D0030004F4646004F4ECE
:10031000200020202020202020202020004F4646A2
:10032000004F4E20002020202020202020202000D0
:100330002D007C00202020202020202020202000B4
:100340004300487973743A2020007300506175733C
:10035000653A200073007C444F574E3A20007300EA
:1003600055503A200025002D002D202E2E2E200045
:1003700053343A200025002D002D0053333A20003D
:1003800025002D002D0053323A200025002D002D90
:100390000053313A20007C485953543A2000200041
:1003A0004D4F443A004300536875742E2074656DB8
:1003B000703A2000430041637469762E2074656DA5
:1003C000703A20007C485953543A200020004D4F89
:1003D000443A004300536875742E2074656D703A7A
:1003E0002000430041637469762E2074656D703A75
:1003F00020003A002D003A005450343A20003A00D0
:100400002D003A005450333A20003A002D003A00B3
:100410005450323A20003A002D003A005450313AFC
:1004200020002052002D005450343A200020520069
:100430002D005450333A20002052002D00545032E9
:100440003A20002052002D005450313A2000205212
:10045000002D005450343A20002052002D005450FA
:10046000333A20002052002D005450323A20002010
:1004700052002D005450313A20002920007C28548D
:10048000494D45503A20003A003A002500202020EE
:1004900020202020202020002500002020202020B7
:1004A000202020202000005EBCE2613FDD83C29C52
:1004B0007E20A3FD1F419DC3217FFCA2401E5F0142
:1004C000E3BD3E6082DC237D9FC1421CFEA0E1BFF4
:1004D0005D0380DE3C62BEE0025CDF81633D7C2226
:1004E000C09E1D43A1FF4618FAA427799BC584DA54
:1004F0003866E5BB5907DB856739BAE40658194702
:10050000A5FB7826C49A653BD987045AB8E6A7F9B3
:100510001B45C6987A24F8A6441A99C7257B3A64E5
:1005200086D85B05E7B98CD2306EEDB3510F4E1013
:10053000F2AC2F7193CD114FADF3702ECC92D38DC1
:100540006F31B2EC0E50AFF1134DCE90722C6D3373
:10055000D18F0C52B0EE326C8ED0530DEFB1F0AEA5
:100560004C1291CF2D73CA947628ABF517490856D3
:10057000B4EA6937D58B5709EBB536688AD495CB81
:100580002977F4AA4816E9B7550B88D6346A2B7533
:1005900097C94A14F6A8742AC896154BA9F7B6E865
:1005A0000A54D7896B35000020002300260029005B
:1005B0002C002F0032000001000003010601090198
:1005C00005050505070508080808020202020A0ACF
:1005D00008080404040401010101010101010303ED
:1005E000030303030303040707070C0C0C0C0C0C98
:1005F0000C0C0202020206060606060606060B0B95
:100600000B0B0B0B0B0B01021020200808102040D5
:1006100010204080020102010804020101020408C6
:100620001020408080402010080402018004020154
:10063000804020100804020108040201010204089D
:100640001020408001020408102040804300212136
:100650002100202020202020202020000000210038
:10066000240027002A002D00300033000101000083
:10067000040107010A0100002200250028002B00C8
:100680002E003100340002010000050108010B01B9
:1006900000000A0B02090C0D0E08070304010000FC
:1006A000000000000000000000000000000000004A
:1006B0000000000000000000000000001211100007
:1006C000000000000000000000000000000000002A
:1006D00000000000000086576A5C11241FBECFEFA7
:1006E000D1E2DEBFCDBF00E00CBF19E0A0E0B2E078
:1006F000E4E2F6EC00E00BBF02C007900D92A038D8
:10070000B107D9F722E1A0E8B9E001C01D92AB31F1
:10071000B207E1F713E0CCE6D3E000E006C0219792
:100720000109802FFE010E94E65CCB36D10780E0F4
:100730000807A9F70E9492480C9400630C940000EB
:100740003F924F925F926F927F928F929F92AF9261
:10075000BF92CF92DF92EF92FF920F931F93CF93AE
:10076000DF9300D000D0CDB7DEB78091060288239A
:1007700071F08BE69BE00E94B32960E080E00E946C
:1007800093448EED92E00E9472441092060260E45F
:1007900073E081E092E00E949C61892B09F04EC0D9
:1007A00000917F1110E069EA73E0CE0101960E948A
:1007B000B63D2FE130E0A80160E070E0CE01019687
:1007C0000E946747CE0101960E94B13D8091980931
:1007D000843411F00C94861B88EE9AE00E94BF22AC
:1007E000693E73408105910510F40C94861B40917D
:1007F000811150E04053584F6091801180918709DA
:100800000E941B330E9456210E9485320E94E431CF
:1008100081E090E0909308028093070281E3809347
:10082000090281E08093060288EE9AE00E948342EA
:1008300010929709109296090C94861B6BE373E053
:1008400081E092E00E949C61892B09F04EC00091EA
:10085000801110E061EB73E0CE0101960E94B63D7D
:100860002CE030E0A80161E070E0CE0101960E942A
:100870006747CE0101960E94B13D8091980984346A
:1008800011F00C94861B88EE9AE00E94BF22693E0C
:1008900073408105910510F40C94861B40918111E1
:1008A00050E04053584F6091870980917F110E941A
:1008B0001B330E9456210E9485320E94E43181E060
:1008C00090E0909308028093070281E380930902ED
:1008D00081E08093060288EE9AE00E9483421092A3
:1008E0009709109296090C94861B66E373E081E0E9
:1008F00092E00E949C61892B09F04FC00091811108
:1009000010E06BEB73E0CE0101960E94B63D23E64A
:1009100030E0A80160E070E0CE0101960E946747D8
:10092000CE0101960E94B13D80919809843411F066
:100930000C94861B88EE9AE00E94BF22693E7340A9
:100940008105910510F40C94861B40918709509104
:1009500088094053584F6091801180917F110E9407
:100960001B330E9456210E9485320E94E43181E0AF
:1009700090E0909308028093070281E3809309023C
:1009800081E08093060288EE9AE00E9483421092F2
:100990009709109296090C94861B61E373E081E03D
:1009A00092E00E949C61892B49F500917E1110E034
:1009B00064EC73E0CE0101960E94B63D27E130E081
:1009C000A80160E070E0CE0101960E946747CE0169
:1009D00001960E94B13D80919809843411F00C94E5
:1009E000861B88EE9AE00E94BF22693E7340810513
:1009F000910510F00C94301B0C94861B6CE273E094
:100A000081E092E00E949C61892B49F500917D1163
:100A100010E06DEC73E0CE0101960E94B63D2BE331
:100A200030E0A80160E070E0CE0101960E946747C7
:100A3000CE0101960E94B13D80919809843411F055
:100A40000C94861B88EE9AE00E94BF22693E734098
:100A50008105910510F00C94591B0C94861B67E2DC
:100A600073E081E092E00E949C61892B09F05DC0F7
:100A7000C090230FD090240FE090250FF090260F08
:100A80004090270F5090280F6090290F70902A0FE8
:100A900080901F0F9090200FA090210FB090220FF8
:100AA00068ED73E0CE0101960E94B63D930182018C
:100AB000B501A401CE0101960E94DA47CE0101964C
:100AC0000E94B13D80919809843411F00C94861BEA
:100AD00088EE9AE00E94BF22693E7340810591052D
:100AE00010F40C94861B4091830950918409609105
:100AF0008509709186098DE19FE00E94AC3E81E0FE
:100B000090E0909308028093070282E380930902A9
:100B100081E08093060288EE9AE00E948342109260
:100B20009709109296090C94861B62E273E081E0AB
:100B300092E00E949C61892B09F04CC0C090330F59
:100B4000D090340FE090350FF090360F0091310FB8
:100B50001091320F68EE73E0CE0101960E94B63D0F
:100B60009601A701B801CE0101960E946747CE0108
:100B700001960E94B13D80919809843411F00C9443
:100B8000861B88EE9AE00E94BF22693E7340810571
:100B9000910510F40C94861B609187097091880967
:100BA0008FE29FE00E948B3E81E090E090930802EC
:100BB0008093070282E38093090281E0809306021A
:100BC00088EE9AE00E94834210929709109296094B
:100BD0000C94861B6DE173E081E092E00E949C61C1
:100BE000892B09F04CC0C0903D0FD0903E0FE09093
:100BF0003F0FF090400F00913B0F10913C0F6CEFB6
:100C000073E0CE0101960E94B63D9601A701B8019E
:100C1000CE0101960E946747CE0101960E94B13D28
:100C200080919809843411F00C94861B88EE9AE028
:100C30000E94BF22693E73408105910510F40C9417
:100C4000861B609187097091880989E39FE00E9463
:100C50008B3E81E090E0909308028093070282E34C
:100C60008093090281E08093060288EE9AE00E9458
:100C7000834210929709109296090C94861B68E1A2
:100C800073E081E092E00E949C61892B09F04AC0E8
:100C9000C090470FD090480FE090490FF0904A0F56
:100CA0000091450F1091460F61E174E0CE0101966D
:100CB0000E94B63D9601A701B801CE0101960E949F
:100CC0006747CE0101960E94B13D80919809843416
:100CD00011F00C94861B60918709709188098091AE
:100CE000490F90914A0F8617970711F40C94861BB1
:100CF00083E49FE00E948B3E81E090E090930802A5
:100D00008093070282E38093090281E080930602C8
:100D100088EE9AE00E9483421092970910929609F9
:100D20000C94861B63E173E081E092E00E949C6179
:100D3000892B09F055C0C090B50ED090B60EE0904A
:100D4000B70EF090B80E8090B10E9090B20EA090B9
:100D5000B30EB090B40E63E274E0CE0101960E942F
:100D6000B63D95018401B501A401CE0101960E9412
:100D7000DA47CE0101960E94B13D809198098434F2
:100D800011F00C94861B88EE9AE00E94BF22693E07
:100D900073408105910510F40C94861B40918309E2
:100DA0005091840960918509709186098FEA9EE0CF
:100DB0000E94AC3E81E090E090930802809307028D
:100DC00085E38093090281E08093060288EE9AE031
:100DD0000E94834210929709109296090C94861BE8
:100DE0006EE073E081E092E00E949C61892B09F043
:100DF0004CC0C090A90ED090AA0EE090AB0EF0901F
:100E0000AC0E0091A70E1091A80E66E374E0CE011F
:100E100001960E94B63D9601A701B801CE01019648
:100E20000E946747CE0101960E94B13D80919809CA
:100E3000843411F00C94861B88EE9AE00E94BF2245
:100E4000693E73408105910510F40C94861B6091F6
:100E500087097091880985EA9EE00E948B3E81E0B7
:100E600090E0909308028093070285E38093090243
:100E700081E08093060288EE9AE00E9483421092FD
:100E80009709109296090C94861B69E073E081E043
:100E900092E00E949C61892B09F05DC0C090D30E46
:100EA000D090D40EE090D50EF090D60E4090D70E94
:100EB0005090D80E6090D90E7090DA0E8090CF0EC0
:100EC0009090D00EA090D10EB090D20E6AE474E053
:100ED000CE0101960E94B63D93018201B501A401A5
:100EE000CE0101960E94DA47CE0101960E94B13DE3
:100EF00080919809843411F00C94861B88EE9AE056
:100F00000E94BF22693E73408105910510F40C9444
:100F1000861B4091830950918409609185097091E5
:100F200086098DEC9EE00E94AC3E81E090E09093BB
:100F300008028093070285E38093090281E0809391
:100F4000060288EE9AE00E9483421092970910925E
:100F500096090C94861B64E073E081E092E00E94A5
:100F60009C61892B09F04CC0C090C70ED090C80E70
:100F7000E090C90EF090CA0E0091C50E1091C60EF9
:100F80006DE574E0CE0101960E94B63D9601A70181
:100F9000B801CE0101960E946747CE0101960E94DA
:100FA000B13D80919809843411F00C94861B88EE31
:100FB0009AE00E94BF22693E73408105910510F4BA
:100FC0000C94861B609187097091880983EC9EE0E0
:100FD0000E948B3E81E090E090930802809307028C
:100FE00085E38093090281E08093060288EE9AE00F
:100FF0000E94834210929709109296090C94861BC6
:101000006FEF72E081E092E00E949C61892B09F011
:101010005DC0C090F10ED090F20EE090F30EF09013
:10102000F40E4090F50E5090F60E6090F70E709012
:10103000F80E8090ED0E9090EE0EA090EF0EB09016
:10104000F00E61E774E0CE0101960E94B63D930177
:101050008201B501A401CE0101960E94DA47CE01BA
:1010600001960E94B13D80919809843411F00C944E
:10107000861B88EE9AE00E94BF22693E734081057C
:10108000910510F40C94861B4091830950918409BA
:1010900060918509709186098BEE9EE00E94AC3EBE
:1010A00081E090E0909308028093070285E38093AB
:1010B000090281E08093060288EE9AE00E94834252
:1010C00010929709109296090C94861B6AEF72E0B1
:1010D00081E092E00E949C61892B09F04CC0C09095
:1010E000E50ED090E60EE090E70EF090E80E00914D
:1010F000E30E1091E40E64E874E0CE0101960E94C4
:10110000B63D9601A701B801CE0101960E9467473E
:10111000CE0101960E94B13D80919809843411F06E
:101120000C94861B88EE9AE00E94BF22693E7340B1
:101130008105910510F40C94861B609187097091CC
:10114000880981EE9EE00E948B3E81E090E09093C2
:1011500008028093070285E38093090281E080936F
:10116000060288EE9AE00E9483421092970910923C
:1011700096090C94861B65EF72E081E092E00E9474
:101180009C61892B09F05DC0C0900F0FD090100FAB
:10119000E090110FF090120F4090130F5090140F29
:1011A0006090150F7090160F80900B0F90900C0FA1
:1011B000A0900D0FB0900E0F68E974E0CE0101967B
:1011C0000E94B63D93018201B501A401CE010196B2
:1011D0000E94DA47CE0101960E94B13D80919809A4
:1011E000843411F00C94861B88EE9AE00E94BF2292
:1011F000693E73408105910510F40C94861B409163
:10120000830950918409609185097091860989E06C
:101210009FE00E94AC3E81E090E0909308028093B2
:10122000070285E38093090281E08093060288EE3D
:101230009AE00E94834210929709109296090C94AA
:10124000861B60EF72E081E092E00E949C61892B36
:1012500009F04CC0C090030FD090040FE090050F30
:10126000F090060F0091010F1091020F6BEA74E0ED
:10127000CE0101960E94B63D9601A701B801CE01AC
:1012800001960E946747CE0101960E94B13D809170
:101290009809843411F00C94861B88EE9AE00E9421
:1012A000BF22693E73408105910510F40C94861BA2
:1012B00060918709709188098FEF9EE00E948B3EB4
:1012C00081E090E0909308028093070285E3809389
:1012D000090281E08093060288EE9AE00E94834230
:1012E00010929709109296090C94861B6BEE72E08F
:1012F00081E092E00E949C61892B09F05DC0C09062
:101300002310D0902410E0902510F09026104090EB
:101310002710509028106090291070902A1080900B
:101320001F1090902010A0902110B09022106FEB11
:1013300074E0CE0101960E94B63D93018201B50191
:10134000A401CE0101960E94DA47CE0101960E94C7
:10135000B13D80919809843411F00C94861B88EE7D
:101360009AE00E94BF22693E73408105910510F406
:101370000C94861B409183095091840960918509E2
:10138000709186098DE190E10E94AC3E81E090E091
:10139000909308028093070283E38093090281E01F
:1013A0008093060288EE9AE00E9483421092970989
:1013B000109296090C94861B66EE72E081E092E032
:1013C0000E949C61892B09F04CC0C0903310D090D2
:1013D0003410E0903510F0903610009131101091DB
:1013E000321061ED74E0CE0101960E94B63D960187
:1013F000A701B801CE0101960E946747CE01019670
:101400000E94B13D80919809843411F00C94861BA0
:1014100088EE9AE00E94BF22693E734081059105E3
:1014200010F40C94861B60918709709188098FE2F3
:1014300090E10E948B3E81E090E0909308028093BF
:10144000070283E38093090281E08093060288EE1D
:101450009AE00E94834210929709109296090C9488
:10146000861B61EE72E081E092E00E949C61892B14
:1014700009F04CC0C0903D10D0903E10E0903F105D
:10148000F090401000913B1010913C1065EE74E01C
:10149000CE0101960E94B63D9601A701B801CE018A
:1014A00001960E946747CE0101960E94B13D80914E
:1014B0009809843411F00C94861B88EE9AE00E94FF
:1014C000BF22693E73408105910510F40C94861B80
:1014D000609187097091880989E390E10E948B3EB1
:1014E00081E090E0909308028093070283E3809369
:1014F000090281E08093060288EE9AE00E9483420E
:1015000010929709109296090C94861B6CED72E06C
:1015100081E092E00E949C61892B09F04CC0C09050
:101520004710D0904810E0904910F0904A10009178
:101530004510109146106AEF74E0CE0101960E94AA
:10154000B63D9601A701B801CE0101960E946747FA
:10155000CE0101960E94B13D80919809843411F02A
:101560000C94861B88EE9AE00E94BF22693E73406D
:101570008105910510F40C94861B60918709709188
:10158000880983E490E10E948B3E81E090E0909393
:1015900008028093070283E38093090281E080932D
:1015A000060288EE9AE00E948342109297091092F8
:1015B00096090C94861B67ED72E081E092E00E9430
:1015C0009C61892B09F055C0C090B50FD090B60F23
:1015D000E090B70FF090B80F8090B10F9090B20FDD
:1015E000A090B30FB090B40F6CE075E0CE010196FF
:1015F0000E94B63D95018401B501A401CE0101967A
:101600000E94DA47CE0101960E94B13D809198096F
:10161000843411F00C94861B88EE9AE00E94BF225D
:10162000693E73408105910510F40C94861B40912E
:1016300083095091840960918509709186098FEA28
:101640009FE00E94AC3E81E090E09093080280937E
:10165000070286E38093090281E08093060288EE08
:101660009AE00E94834210929709109296090C9476
:10167000861B62ED72E081E092E00E949C61892B02
:1016800009F04CC0C090A90FD090AA0FE090AB0F0A
:10169000F090AC0F0091A70F1091A80F6FE175E0CB
:1016A000CE0101960E94B63D9601A701B801CE0178
:1016B00001960E946747CE0101960E94B13D80913C
:1016C0009809843411F00C94861B88EE9AE00E94ED
:1016D000BF22693E73408105910510F40C94861B6E
:1016E000609187097091880985EA9FE00E948B3E8E
:1016F00081E090E0909308028093070286E3809354
:10170000090281E08093060288EE9AE00E948342FB
:1017100010929709109296090C94861B6DEC72E05A
:1017200081E092E00E949C61892B09F05DC0C0902D
:10173000D30FD090D40FE090D50FF090D60F4090FB
:10174000D70F5090D80F6090D90F7090DA0F80901B
:10175000CF0F9090D00FA090D10FB090D20F63E335
:1017600075E0CE0101960E94B63D93018201B5015C
:10177000A401CE0101960E94DA47CE0101960E9493
:10178000B13D80919809843411F00C94861B88EE49
:101790009AE00E94BF22693E73408105910510F4D2
:1017A0000C94861B409183095091840960918509AE
:1017B000709186098DEC9FE00E94AC3E81E090E044
:1017C000909308028093070286E38093090281E0E8
:1017D0008093060288EE9AE00E9483421092970955
:1017E000109296090C94861B68EC72E081E092E0FE
:1017F0000E949C61892B09F04CC0C090C70FD0900B
:10180000C80FE090C90FF090CA0F0091C50F10915A
:10181000C60F66E475E0CE0101960E94B63D9601C2
:10182000A701B801CE0101960E946747CE0101963B
:101830000E94B13D80919809843411F00C94861B6C
:1018400088EE9AE00E94BF22693E734081059105AF
:1018500010F40C94861B609187097091880983ECC1
:101860009FE00E948B3E81E090E09093080280937D
:10187000070286E38093090281E08093060288EEE6
:101880009AE00E94834210929709109296090C9454
:10189000861B63EC72E081E092E00E949C61892BE0
:1018A00009F05DC0C090F10FD090F20FE090F30FFF
:1018B000F090F40F4090F50F5090F60F6090F70FF6
:1018C0007090F80F8090ED0F9090EE0FA090EF0FBA
:1018D000B090F00F6AE575E0CE0101960E94B63D2A
:1018E00093018201B501A401CE0101960E94DA475D
:1018F000CE0101960E94B13D80919809843411F087
:101900000C94861B88EE9AE00E94BF22693E7340C9
:101910008105910510F40C94861B40918309509128
:10192000840960918509709186098BEE9FE00E9481
:10193000AC3E81E090E0909308028093070286E33A
:101940008093090281E08093060288EE9AE00E946B
:10195000834210929709109296090C94861B6EEBA5
:1019600072E081E092E00E949C61892B09F04CC0FA
:10197000C090E50FD090E60FE090E70FF090E80FF1
:101980000091E30F1091E40F6DE675E0CE01019632
:101990000E94B63D9601A701B801CE0101960E94B2
:1019A0006747CE0101960E94B13D80919809843429
:1019B00011F00C94861B88EE9AE00E94BF22693ECB
:1019C00073408105910510F40C94861B6091870982
:1019D0007091880981EE9FE00E948B3E81E090E04B
:1019E000909308028093070286E38093090281E0C6
:1019F0008093060288EE9AE00E9483421092970933
:101A0000109296090C94861B69EB72E081E092E0DB
:101A10000E949C61892B09F05DC0C0900F10D0908E
:101A20001010E0901110F090121040901310509090
:101A30001410609015107090161080900B109090FC
:101A40000C10A0900D10B0900E1061E875E0CE0162
:101A500001960E94B63D93018201B501A401CE0119
:101A600001960E94DA47CE0101960E94B13D809115
:101A70009809843411F00C94861B88EE9AE00E9439
:101A8000BF22693E73408105910510F40C94861BBA
:101A9000409183095091840960918509709186096C
:101AA00089E090E10E94AC3E81E090E090930802D2
:101AB0008093070286E38093090281E08093060207
:101AC00088EE9AE00E94834210929709109296093C
:101AD0000C94861B64EB72E081E092E00E949C61B2
:101AE000892B09F04CC0C0900310D0900410E090F6
:101AF0000510F0900610009101101091021064E999
:101B000075E0CE0101960E94B63D9601A701B8018D
:101B1000CE0101960E946747CE0101960E94B13D19
:101B200080919809843411F00C94861B88EE9AE019
:101B30000E94BF22693E73408105910510F40C9408
:101B4000861B60918709709188098FEF9FE00E9442
:101B50008B3E81E090E0909308028093070286E339
:101B60008093090281E08093060288EE9AE00E9449
:101B7000834210929709109296090C94861B6FEA83
:101B800072E081E092E00E949C61892B09F05DC0C7
:101B9000C0908D10D0908E10E0908F10F09090102B
:101BA000409091105090921060909310709094100B
:101BB0008090891090908A10A0908B10B0908C101B
:101BC00068EA75E0CE0101960E94B63D930182015C
:101BD000B501A401CE0101960E94DA47CE0101961B
:101BE0000E94B13D80919809843411F00C94861BB9
:101BF00088EE9AE00E94BF22693E734081059105FC
:101C000010F40C94861B40918309509184096091D3
:101C100085097091860987E890E10E94AC3E81E0D9
:101C200090E0909308028093070284E38093090276
:101C300081E08093060288EE9AE00E94834210922F
:101C40009709109296090C94861B6AEA72E081E06B
:101C500092E00E949C61892B09F05DC0C0909F10AA
:101C6000D090A010E090A110F090A2104090A3108E
:101C70005090A4106090A5107090A61080909B10BA
:101C800090909C10A0909D10B0909E106AEB75E013
:101C9000CE0101960E94B63D93018201B501A401D7
:101CA000CE0101960E94DA47CE0101960E94B13D15
:101CB00080919809843411F00C94861B88EE9AE088
:101CC0000E94BF22693E73408105910510F40C9477
:101CD000861B409183095091840960918509709118
:101CE000860989E990E10E94AC3E81E090E0909302
:101CF00008028093070284E38093090281E08093C5
:101D0000060288EE9AE00E94834210929709109290
:101D100096090C94861B65EA72E081E092E00E94CD
:101D20009C61892B09F05DC0C0900311D090041113
:101D3000E0900511F09006114090071150900811A5
:101D40006090091170900A118090FF10909000111E
:101D5000A0900111B09002116DEC75E0CE010196DA
:101D60000E94B63D93018201B501A401CE01019606
:101D70000E94DA47CE0101960E94B13D80919809F8
:101D8000843411F00C94861B88EE9AE00E94BF22E6
:101D9000693E73408105910510F40C94861B4091B7
:101DA00083095091840960918509709186098DEFAE
:101DB00090E10E94AC3E81E090E090930802809315
:101DC000070287E38093090281E08093060288EE90
:101DD0009AE00E94834210929709109296090C94FF
:101DE000861B60EA72E081E092E00E949C61892B90
:101DF00009F05DC0C0901511D0901611E090171138
:101E0000F09018114090191150901A1160901B1108
:101E100070901C118090111190901211A0901311CC
:101E2000B09014116FED75E0CE0101960E94B63DA1
:101E300093018201B501A401CE0101960E94DA4707
:101E4000CE0101960E94B13D80919809843411F031
:101E50000C94861B88EE9AE00E94BF22693E734074
:101E60008105910510F40C94861B409183095091D3
:101E7000840960918509709186098FE091E10E9443
:101E8000AC3E81E090E0909308028093070287E3E4
:101E90008093090281E08093060288EE9AE00E9416
:101EA000834210929709109296090C94861B6BE955
:101EB00072E081E092E00E949C61892BC9F510914B
:101EC0001F0C62EF75E0CE0101960E94B63D612FB6
:101ED000CE0101960E94B55BCE0101960E94B13DF4
:101EE00080919809843411F00C94861B88EE9AE056
:101EF0000E94BF22693E73408105910510F40C9445
:101F0000861B84E38093010281E38093020290E3C5
:101F100090930302809304021092050288EE9AE0E7
:101F20000E94834210929709109296090C94861B86
:101F300066E972E081E092E00E949C61892B09F0E1
:101F400056C0809182090091270C1091280C61E005
:101F500076E0813051F4CE0101960E94B63D27E132
:101F600030E0A80160E070E009C0CE0101960E9457
:101F7000B63D27E130E0A80169EE7FEFCE01019682
:101F80000E94FF5BCE0101960E94B13D80919809AD
:101F9000843411F00C94861B88EE9AE00E94BF22D4
:101FA000693E73408105910510F40C94861B809165
:101FB000800990918109909393098093920984E319
:101FC0008093010281E38093020280E38093030205
:101FD00082E3809304021092050288EE9AE00E9448
:101FE000834210929709109296090C94861B61E91E
:101FF00072E081E092E00E949C61892B09F063C04D
:10200000809182090091310C1091320C60E176E0F0
:10201000813051F4CE0101960E94B63D2BE330E0B1
:10202000A80160E070E009C0CE0101960E94B63DB3
:102030002BE330E0A80165EC7FEFCE0101960E9412
:10204000FF5BCE0101960E94B13D809198098434D6
:1020500011F00C94861B88EE9AE00E94BF22693E24
:1020600073408105910510F40C94861B0091800942
:102070001091810910939109009390096091820950
:102080008BE19CE00E94773E6091920970919309E8
:10209000A8018BE19CE00E94AE3F81E090E090932C
:1020A00008028093070288E38093090281E080930D
:1020B000060288EE9AE00E948342109297091092DD
:1020C00096090C94861B6CE872E081E092E00E9415
:1020D0009C61892B09F0C2C08091991181115DC06A
:1020E000C0904D0CD0904E0CE0904F0CF090500CE6
:1020F00040903F0C5090400C6090410C7090420C0E
:102100008090490C90904A0CA0904B0CB0904C0CD5
:1021100060E276E0CE0101960E94B63D9301820115
:10212000B501A401CE0101960E94DA47CE010196C5
:102130000E94B13D80919809843411F00C94861B63
:1021400088EE9AE00E94BF22693E734081059105A6
:1021500010F40C94861B409183095091840960917E
:1021600085097091860985E39CE00E94AC3E81E080
:1021700090E0909308028093070289E3809309021C
:1021800081E08093060288EE9AE00E9483421092DA
:102190009709109296090C94861B813011F00C94CB
:1021A000861BC0904D0CD0904E0CE0904F0CF090E0
:1021B000500C4090630C5090640C6090650C7090D3
:1021C000660C8090490C90904A0CA0904B0CB090FB
:1021D0004C0C63E376E0CE0101960E94B63D93017C
:1021E0008201B501A401CE0101960E94DA47CE0119
:1021F00001960E94B13D80919809843411F00C94AD
:10220000861B88EE9AE00E94BF22693E73408105DA
:10221000910510F40C94861B409183095091840918
:10222000609185097091860989E59CE00E94AC3E29
:1022300081E090E0909308028093070289E3809305
:10224000090281E08093060288EE9AE00E948342B0
:1022500010929709109296090C94861B67E872E019
:1022600081E092E00E949C61892B09F0C2C08091BC
:10227000991181115DC0C0904D0CD0904E0CE09032
:102280004F0CF090500C4090510C5090520C6090BC
:10229000530C7090540C8090490C90904A0CA09074
:1022A0004B0CB0904C0C68E476E0CE0101960E9495
:1022B000B63D93018201B501A401CE0101960E94B1
:1022C000DA47CE0101960E94B13D8091980984348D
:1022D00011F00C94861B88EE9AE00E94BF22693EA2
:1022E00073408105910510F40C94861B409183097D
:1022F00050918409609185097091860987E49CE07A
:102300000E94AC3E81E090E0909308028093070227
:1023100089E38093090281E08093060288EE9AE0C7
:102320000E94834210929709109296090C94861B82
:10233000813011F00C94861BC0904D0CD0904E0C47
:10234000E0904F0CF090500C4090750C5090760C33
:102350006090770C7090780C8090490C90904A0CAB
:10236000A0904B0CB0904C0C6BE576E0CE01019642
:102370000E94B63D93018201B501A401CE010196F0
:102380000E94DA47CE0101960E94B13D80919809E2
:10239000843411F00C94861B88EE9AE00E94BF22D0
:1023A000693E73408105910510F40C94861B4091A1
:1023B00083095091840960918509709186098BE6A3
:1023C0009CE00E94AC3E81E090E0909308028093F4
:1023D000070289E38093090281E08093060288EE78
:1023E0009AE00E94834210929709109296090C94E9
:1023F000861B62E872E081E092E00E949C61892B7A
:1024000009F04CC0C090810CD090820CE090830CFD
:10241000F090840C00917F0C1091800C60E776E0C6
:10242000CE0101960E94B63D9601A701B801CE01EA
:1024300001960E946747CE0101960E94B13D8091AE
:102440009809843411F00C94861B88EE9AE00E945F
:10245000BF22693E73408105910510F40C94861BE0
:1024600060918709709188098DE79CE00E948B3EFE
:1024700081E090E0909308028093070289E38093C3
:10248000090281E08093060288EE9AE00E9483426E
:1024900010929709109296090C94861B6DE772E0D2
:1024A00081E092E00E949C61892BD1F510919B0CF8
:1024B00060E876E0CE0101960E94B63D612FCE0124
:1024C00001960E94B55BCE0101960E94B13D8091BC
:1024D0009809843411F00C94861B88EE9AE00E94CF
:1024E000BF22693E73408105910510F40C94861B50
:1024F00084E38093010282E38093020280E380936D
:10250000030281E3809304021092050288EE9AE0B0
:102510000E94834210929709109296090C94861B90
:1025200068E772E081E092E00E949C61892B09F0EB
:1025300055C0809182090091A30C1091A40C6FE802
:1025400076E0813051F4CE0101960E94B63D27E13C
:1025500030E0A80160E070E009C0CE0101960E9461
:10256000B63D27E130E0A80169EE7FEFCE0101968C
:102570000E94FF5BCE0101960E94B13D80919809B7
:10258000843411F00C94861B88EE9AE00E94BF22DE
:10259000693E73408105910510F40C94861B80916F
:1025A000800990918109909393098093920984E323
:1025B0008093010282E38093020290E390930302EE
:1025C000809304021092050288EE9AE00E948342F2
:1025D00010929709109296090C94861B63E772E09B
:1025E00081E092E00E949C61892B09F063C0809198
:1025F00082090091AD0C1091AE0C6EE976E081304D
:1026000051F4CE0101960E94B63D2BE330E0A801C3
:1026100060E070E009C0CE0101960E94B63D2BE358
:1026200030E0A80165EC7FEFCE0101960E94FF5BD0
:10263000CE0101960E94B13D80919809843411F039
:102640000C94861B88EE9AE00E94BF22693E73407C
:102650008105910510F40C94861B0091800910915E
:10266000810910939109009390096091820987E98B
:102670009CE00E94773E6091920970919309A801B5
:1026800087E99CE00E94AE3F81E090E090930802D1
:102690008093070288E38093090281E08093060219
:1026A00088EE9AE00E948342109297091092960950
:1026B0000C94861B6EE672E081E092E00E949C61C1
:1026C000892B09F0BAC03090991131105AC0C090CE
:1026D000C90CD090CA0CE090CB0CF090CC0C409080
:1026E000BB0C5090BC0C6090BD0C7090BE0C8090E8
:1026F000C50C9090C60CA090C70CB090C80C6EEAA8
:1027000076E0CE0101960E94B63D93018201B501AB
:10271000A401CE0101960E94DA47CE0101960E94E3
:10272000B13D80919809843409F0F0C788EE9AE0B1
:102730000E94BF22693E73408105910508F4E6C7F7
:1027400040918309509184096091850970918609AF
:1027500081EB9CE00E94AC3E81E090E09093080207
:102760008093070289E38093090281E08093060247
:1027700088EE9AE00E94834210929709109296097F
:10278000C5C781E03812C2C7C090C90CD090CA0C2E
:10279000E090CB0CF090CC0C8090DF0C9090E00C93
:1027A000A090E10CB090E20C4090C50C5090C60C8B
:1027B0006090C70C7090C80C61EC76E0CE01019679
:1027C0000E94B63D95018401B301A201CE0101969C
:1027D0000E94DA47CE0101960E94B13D809198098E
:1027E000843409F093C788EE9AE00E94BF22693EC4
:1027F00073408105910508F489C740918309509180
:102800008409609185097091860985ED9CE00E949C
:10281000AC3E81E090E0909308028093070289E348
:10282000809309023092060288EE9AE00E94834269
:10283000109297091092960969C769E672E081E0E3
:1028400092E00E949C61892B09F0BAC030909911E6
:1028500031105AC0C090C90CD090CA0CE090CB0C7B
:10286000F090CC0C4090CD0C5090CE0C6090CF0CE2
:102870007090D00C8090C50C9090C60CA090C70CA6
:10288000B090C80C66ED76E0CE0101960E94B63D90
:1028900093018201B501A401CE0101960E94DA479D
:1028A000CE0101960E94B13D80919809843409F0CF
:1028B0002DC788EE9AE00E94BF22693E73408105D1
:1028C000910508F423C740918309509184096091D0
:1028D00085097091860983EC9CE00E94AC3E81E002
:1028E00090E0909308028093070289E380930902A5
:1028F00081E08093060288EE9AE00E948342109263
:1029000097091092960902C781E03812FFC6C0905D
:10291000C90CD090CA0CE090CB0CF090CC0C8090FD
:10292000F10C9090F20CA090F30CB090F40C40904D
:10293000C50C5090C60C6090C70C7090C80C69EE26
:1029400076E0CE0101960E94B63D95018401B30167
:10295000A201CE0101960E94DA47CE0101960E94A3
:10296000B13D80919809843409F0D0C688EE9AE090
:102970000E94BF22693E73408105910508F4C6C6D6
:10298000409183095091840960918509709186096D
:1029900087EE9CE00E94AC3E81E090E090930802BC
:1029A0008093070289E3809309023092060288EE41
:1029B0009AE00E9483421092970910929609A6C647
:1029C00064E672E081E092E00E949C61892B09F04C
:1029D00049C0C090FD0CD090FE0CE090FF0CF09030
:1029E000000D0091FB0C1091FC0C6EEF76E0CE0117
:1029F00001960E94B63D9601A701B801CE0101964D
:102A00000E946747CE0101960E94B13D80919809CE
:102A1000843409F07BC688EE9AE00E94BF22693EAA
:102A200073408105910508F471C660918709709122
:102A3000880989EF9CE00E948B3E81E090E09093B2
:102A400008028093070289E38093090281E0809362
:102A5000060288EE9AE00E94834210929709109233
:102A6000960954C66FE572E081E092E00E949C6195
:102A7000892BB9F51091170D6EE077E0CE01019624
:102A80000E94B63D612FCE0101960E94B55BCE013A
:102A900001960E94B13D80919809843409F036C6B0
:102AA00088EE9AE00E94BF22693E7340810591053D
:102AB00008F42CC684E38093010283E3809302022E
:102AC00080E38093030281E3809304021092050265
:102AD00088EE9AE00E94834210929709109296091C
:102AE00015C66AE572E081E092E00E949C61892B44
:102AF00009F053C08091820900911F0D1091200DA3
:102B00006DE177E0813051F4CE0101960E94B63D2F
:102B100027E130E0A80160E070E009C0CE01019635
:102B20000E94B63D27E130E0A80169EE7FEFCE01BB
:102B300001960E94FF5BCE0101960E94B13D8091FB
:102B40009809843409F0E2C588EE9AE00E94BF2219
:102B5000693E73408105910508F4D8C580918009CC
:102B600090918109909393098093920984E38093D3
:102B7000010283E38093020280E38093030282E3F5
:102B8000809304021092050288EE9AE00E9483422C
:102B90001092970910929609B9C565E572E081E037
:102BA00092E00E949C61892B09F060C080918209AB
:102BB0000091290D10912A0D6CE277E0813051F4DB
:102BC000CE0101960E94B63D2BE330E0A80160E003
:102BD00070E009C0CE0101960E94B63D2BE330E0C3
:102BE000A80165EC7FEFCE0101960E94FF5BCE014C
:102BF00001960E94B13D80919809843409F086C500
:102C000088EE9AE00E94BF22693E734081059105DB
:102C100008F47CC5009180091091810910939109F5
:102C2000009390096091820983E19DE00E94773EC4
:102C30006091920970919309A80183E19DE00E943F
:102C4000AE3F81E090E0909308028093070288E312
:102C50008093090281E08093060288EE9AE00E9448
:102C60008342109297091092960950C560E572E070
:102C700081E092E00E949C61892B09F0BAC03090FB
:102C8000991131105AC0C090450DD090460DE0907A
:102C9000470DF090480D4090370D5090380D6090E2
:102CA000390D70903A0D8090410D9090420DA0909A
:102CB000430DB090440D6CE377E0CE0101960E9485
:102CC000B63D93018201B501A401CE0101960E9497
:102CD000DA47CE0101960E94B13D80919809843473
:102CE00009F014C588EE9AE00E94BF22693E734045
:102CF0008105910508F40AC5409183095091840922
:102D000060918509709186098DE29DE00E94AC3E3C
:102D100081E090E0909308028093070289E380931A
:102D2000090281E08093060288EE9AE00E948342C5
:102D30001092970910929609E9C481E03812E6C40E
:102D4000C090450DD090460DE090470DF090480D95
:102D500080905B0D90905C0DA0905D0DB0905E0D2D
:102D60004090410D5090420D6090430D7090440D85
:102D70006FE477E0CE0101960E94B63D9501840193
:102D8000B301A201CE0101960E94DA47CE0101965D
:102D90000E94B13D80919809843409F0B7C488EE4F
:102DA0009AE00E94BF22693E73408105910508F4B4
:102DB000ADC4409183095091840960918509709157
:102DC000860981E59DE00E94AC3E81E090E0909311
:102DD00008028093070289E3809309023092060279
:102DE00088EE9AE00E948342109297091092960909
:102DF0008DC46BE472E081E092E00E949C61892BBB
:102E000009F0BAC03090991131105AC0C090450DE8
:102E1000D090460DE090470DF090480D4090490D40
:102E200050904A0D60904B0D70904C0D8090410D6C
:102E30009090420DA090430DB090440D64E677E071
:102E4000CE0101960E94B63D93018201B501A40115
:102E5000CE0101960E94DA47CE0101960E94B13D53
:102E600080919809843409F051C488EE9AE00E9458
:102E7000BF22693E73408105910508F447C4409123
:102E800083095091840960918509709186098FE3C7
:102E90009DE00E94AC3E81E090E090930802809318
:102EA000070289E38093090281E08093060288EE9D
:102EB0009AE00E948342109297091092960926C4C4
:102EC00081E0381223C4C090450DD090460DE090AB
:102ED000470DF090480D80906D0D90906E0DA09074
:102EE0006F0DB090700D4090410D5090420D60906C
:102EF000430D7090440D67E777E0CE0101960E9484
:102F0000B63D95018401B301A201CE0101960E9454
:102F1000DA47CE0101960E94B13D80919809843430
:102F200009F0F4C388EE9AE00E94BF22693E734024
:102F30008105910508F4EAC3409183095091840901
:102F4000609185097091860983E69DE00E94AC3E00
:102F500081E090E0909308028093070289E38093D8
:102F600009023092060288EE9AE00E948342109293
:102F7000970910929609CAC366E472E081E092E074
:102F80000E949C61892B09F049C0A090790DB090F6
:102F90007A0DE0907B0DF0907C0D0091770D1091F3
:102FA000780D6CE877E0CE0101960E94B63D950160
:102FB000A701B801CE0101960E946747CE01019694
:102FC0000E94B13D80919809843409F09FC388EE36
:102FD0009AE00E94BF22693E73408105910508F482
:102FE00095C3609187097091880985E79DE00E94EB
:102FF0008B3E81E090E0909308028093070289E382
:103000008093090281E08093060288EE9AE00E9494
:103010008342109297091092960978C361E472E096
:1030200081E092E00E949C61892BB1F51091930D93
:103030006CE977E0CE0101960E94B63D612FCE018A
:1030400001960E94B55BCE0101960E94B13D809130
:103050009809843409F05AC388EE9AE00E94BF228E
:10306000693E73408105910508F450C384E3809361
:1030700001028093020280E38093030281E3809344
:1030800004021092050288EE9AE00E948342109298
:103090009709109296093AC36CE372E081E092E0DE
:1030A0000E949C61892B09F052C080918209009195
:1030B0009B0D10919C0D6BEA77E0813051F4CE01AD
:1030C00001960E94B63D27E130E0A80160E070E083
:1030D00009C0CE0101960E94B63D27E130E0A8016B
:1030E00069EE7FEFCE0101960E94FF5BCE01019653
:1030F0000E94B13D80919809843409F007C388EE9D
:103100009AE00E94BF22693E73408105910508F450
:10311000FDC28091800990918109909393098093D9
:10312000920984E3809301028093020280E38093FA
:10313000030282E3809304021092050288EE9AE073
:103140000E9483421092970910929609DFC267E3AA
:1031500072E081E092E00E949C61892B09F060C0DE
:10316000809182090091A50D1091A60D6AEB77E080
:10317000813051F4CE0101960E94B63D2BE330E040
:10318000A80160E070E009C0CE0101960E94B63D42
:103190002BE330E0A80165EC7FEFCE0101960E94A1
:1031A000FF5BCE0101960E94B13D80919809843465
:1031B00009F0ACC288EE9AE00E94BF22693E7340DB
:1031C0008105910508F4A2C200918009109181093E
:1031D0001093910900939009609182098FE89DE016
:1031E0000E94773E6091920970919309A8018FE83F
:1031F0009DE00E94AE3F81E090E0909308028093B2
:10320000070288E38093090281E08093060288EE3A
:103210009AE00E948342109297091092960976C212
:1032200062E372E081E092E00E949C61892B09F0E8
:1032300049C0A090F50DB090F60DE090F70DF0901C
:10324000F80D0091F30D1091F40D6AEC77E0CE01CA
:1032500001960E94B63D9501A701B801CE010196E5
:103260000E946747CE0101960E94B13D8091980966
:10327000843409F04BC288EE9AE00E94BF22693E76
:1032800073408105910508F441C2609187097091EE
:10329000880981EF9DE00E948B3E81E090E0909351
:1032A00008028093070289E38093090281E08093FA
:1032B000060288EE9AE00E948342109297091092CB
:1032C000960924C26DE272E081E092E00E949C6166
:1032D000892B09F0BEC010920002809189098111EA
:1032E0001EC088ED9AE00E94142D60E288ED9AE0FD
:1032F0000E94D52B80E090E00E94064580E090E09F
:103300000E94064589E090E00E94064560E088ED55
:103310009AE00E940B2988ED9AE00E94782B81E0C8
:103320008093890960E288ED9AE00E94D52B89E0BC
:1033300090E00E9406456FEF88ED9AE00E940B290D
:1033400088ED9AE00E94782B68E873E180E090E0D5
:103350000E94D74660E288ED9AE00E94D52B89E072
:1033600090E00E94064560E088ED9AE00E940B29FB
:1033700088ED9AE00E94782B68EE73E080E090E0A0
:103380000E94D74600E010E0812C912C54018394D8
:10339000D501C401002E04C0880F991FAA1FBB1FAE
:1033A0000A94D2F7F0900002F82AF092000260E24C
:1033B00088ED9AE00E94D52B89E090E00E940645B6
:1033C0006F2D88ED9AE00E940B2988ED9AE00E940B
:1033D000782B68EE73E080E090E00E94D7460F5FA4
:1033E0001F4F08301105A1F600E010E0812C912C50
:1033F00054018394D501C401002E04C0880F991F85
:10340000AA1FBB1F0A94D2F7F82EF09480910002F5
:10341000F822F092000260E288ED9AE00E94D52B3B
:1034200089E090E00E9406456F2D88ED9AE00E94A9
:103430000B2988ED9AE00E94782B68EE73E080E01B
:1034400090E00E94D7460F5F1F4F0830110591F69C
:103450005DC168E272E081E092E00E949C61892B8C
:1034600009F0EEC00E94973160E080E00E94934432
:103470008AED97E00E94F844E12CF12C11E0612FD5
:1034800088ED9AE00E94D52B88ED9AE00E94782B77
:10349000811107C0F701E657F64F10838FEFE81A46
:1034A000F80A1F5F1F3759F761E080E00E949344DC
:1034B00080918A098823A1F08FEE97E00E94F8445A
:1034C00080918A09803120F482EF97E00E94F844CD
:1034D00060918A0970E080E090E040E10E946943D9
:1034E00062E080E00E94934480918B098823A1F0E0
:1034F0008FEE97E00E94F84480918B09803120F490
:1035000082EF97E00E94F84460918B0970E080E0C0
:1035100090E040E10E94694363E080E00E949344B0
:1035200080918C098823A1F08FEE97E00E94F844E7
:1035300080918C09803120F482EF97E00E94F8445A
:1035400060918C0970E080E090E040E10E94694366
:1035500061E08AE00E94934480918D098823A1F064
:103560008FEE97E00E94F84480918D09803120F41D
:1035700082EF97E00E94F84460918D0970E080E04E
:1035800090E040E10E94694362E08AE00E94934437
:1035900080918E098823A1F08FEE97E00E94F84475
:1035A00080918E09803120F482EF97E00E94F844E8
:1035B00060918E0970E080E090E040E10E946943F4
:1035C00063E08AE00E94934480918F098823A1F0F0
:1035D0008FEE97E00E94F84480918F09803120F4AB
:1035E00082EF97E00E94F84460918F0970E080E0DC
:1035F00090E040E10E94694380919809843409F089
:1036000085C088EE9AE00E94BF22693E7340810522
:10361000910508F47BC081E090E0909308028093CC
:10362000070281E38093090281E08093060288EE1D
:103630009AE00E948342109297091092960966C000
:103640000E94973182E090E09093080280930702F5
:1036500081E080930602109297091092960956C055
:103660003091F80B20917E11809187099091880903
:10367000321731F0009711F0019702C087E190E016
:10368000909393098093920980E380930102809341
:1036900002028093030285E38093040210920502E4
:1036A00088EE9AE00E948342109297091092960940
:1036B0002DC01091870980918809109390098093FB
:1036C000910980919209883108F0A5CF1C3308F048
:1036D000A2CF0AE0602F0E94775C692F20E1829FD1
:1036E000600D112482E00E94A031812F602F0E9482
:1036F000775C692F20E1829F600D112481E00E9498
:10370000A03160E080E00E94A03185CF26960FB600
:10371000F894DEBF0FBECDBFDF91CF911F910F9107
:10372000FF90EF90DF90CF90BF90AF909F908F90E1
:103730007F906F905F904F903F90089580E090E071
:1037400008958091BC099091BD09AC014250510986
:103750002091960930919709241735072CF003978B
:103760009093970980939609809196099091970973
:1037700097FF04C0109297091092960908950F932D
:103780001F93CF93DF93209106022223A9F0EB0130
:103790008C0188EE9AE00E9483428BE69BE00E94B7
:1037A000B32960E080E00E949344C8010E94FD4478
:1037B000D093BD09C093BC09DF91CF911F910F91A8
:1037C00008952F923F924F925F926F927F928F92C5
:1037D0009F92AF92BF92CF92DF92EF92FF920F93A0
:1037E0001F93CF93DF93CDB7DEB760970FB6F894F2
:1037F000DEBF0FBECDBF8C01C0908C11D0908D115B
:10380000E0908E11F0908F11FC0122A933A944A9F8
:1038100055A9C701B6010E942B5D6F837887898700
:103820009A87F801EA5BFF4F2285338544855585E9
:10383000C701B6010E942B5D4B015C01F801EC59F8
:10384000FF4F2285338544855585C701B6010E9407
:103850002B5D2B013C01F801EE57FF4F228533858C
:1038600044855585C701B6010E942B5D6B017C0123
:1038700061E678E0CE0101960E94B63D64E070E01A
:10388000CE0101960E94BF1BCE0101960E94B13D60
:1038900080910602882391F082E798E00E94F84424
:1038A000F801E250FF4F8081918101960E94D03053
:1038B00082EB98E00E94F844109206020E94A11B3D
:1038C00022242394312CC8018E5B9F4F9C878B87C9
:1038D000F801E65AFF4FFE87ED87C696988B8F87D3
:1038E00080919609909197092091BC093091BD096A
:1038F000820D931D281739070CF4C90182309105F8
:1039000009F44AC02CF5019709F089C0622D80E0C6
:103910000E94934481E993E00E9472446F8178850C
:1039200089859A850E94AC438FE893E00E94724497
:10393000C501B4010E94AC438DE893E00E9472443B
:10394000F80184A195A10E94D0308BE893E065C076
:103950008330910509F441C0049709F060C0622DDD
:1039600080E00E94934480E793E00E947244C70184
:10397000B6010E94AC4389E693E00E94724487E658
:1039800093E00E947244EF85F889868197810E94B6
:10399000D03085E693E041C0622D80E00E949344E0
:1039A00086E893E00E947244C501B4010E94AC43D2
:1039B00084E893E00E947244C301B2010E94AC43C8
:1039C00082E893E00E947244EB85FC8580819181BE
:1039D0000E94D03080E893E020C0622D80E00E94F9
:1039E00093448BE793E00E947244C301B2010E94AA
:1039F000AC4389E793E00E947244C701B6010E947C
:103A0000AC4387E793E00E947244ED85FE85868192
:103A100097810E94D03085E793E00E947244FFEFC7
:103A20002F1A3F0A84E02816310409F059CF609616
:103A30000FB6F894DEBF0FBECDBFDF91CF911F91BF
:103A40000F91FF90EF90DF90CF90BF90AF909F903D
:103A50008F907F906F905F904F903F902F90089540
:103A60008F929F92AF92BF92CF92DF92EF92FF928E
:103A70000F931F93CF93DF9300D000D0CDB7DEB765
:103A80007C0164E778E0CE0101960E94B63D63E0D8
:103A900070E0CE0101960E94BF1BCE0101960E94EC
:103AA000B13D80910602882391F082E798E00E9460
:103AB000F844F701E250FF4F8081918101960E9406
:103AC000D03082EB98E00E94F844109206020E94E7
:103AD000A11B01E010E067018CEBC80ED11C57015F
:103AE000E6E9AE0EB11C4701F8EA8F0E911C82EB9D
:103AF000E80EF11C80919609909197092091BC09DC
:103B00003091BD09800F911F281739070CF4C901A6
:103B10008230910539F183309105A1F1019709F0C7
:103B200044C0602F80E00E94934480E693E00E94AE
:103B30007244F401868197810E94D0308EE593E033
:103B40000E947244602F89E00E94934486E593E0CE
:103B50000E947244F701868197810E94D03084E5EB
:103B600093E021C0602F80E00E9493448CE493E0B6
:103B70000E947244F601868197810E94D0308AE4C7
:103B800093E011C0602F80E00E94934482E493E0B0
:103B90000E947244F50162857385848595850E9433
:103BA000AC4380E493E00E9472440F5F1F4F0430E7
:103BB000110509F09FCF26960FB6F894DEBF0FBE11
:103BC000CDBFDF91CF911F910F91FF90EF90DF90CC
:103BD000CF90BF90AF909F908F9008950F931F93B9
:103BE00020E030E04EE1DC01A20FB31FFB01E20F49
:103BF000F31F542F01900D925A95E1F7225E3F4F2B
:103C00002639310581F7DC01AA56BF4FFB01EA5680
:103C1000FF4F22E101900D922A95E1F7DC01A855B2
:103C2000BF4FFB01E855FF4F2AE001900D922A9506
:103C3000E1F7DC01AE54BF4FFB01EE54FF4F2AE029
:103C400001900D922A95E1F7DC01A454BF4FFB01CE
:103C5000E454FF4F2AE001900D922A95E1F7FB0111
:103C6000EA53FF4F2081FC01EA53FF4F2083FB0101
:103C7000E953FF4F2081FC01E953FF4F2083FB01F3
:103C8000E853FF4F2081FC01E853FF4F2083FB01E5
:103C9000E753FF4F2081FC01E753FF4F2083FB01D7
:103CA000E653FF4F2081FC01E653FF4F2083FB01C9
:103CB000E553FF4F2081FC01E553FF4F2083FB01BB
:103CC000E453FF4F20813181FC01E453FF4F3183E6
:103CD0002083FB01E253FF4F008111812281338158
:103CE000FC01E253FF4F0083118322833383FB01E6
:103CF000EE52FF4F0081118122813381FC01EE528F
:103D0000FF4F0083118322833383FB01EA52FF4F6D
:103D10000081118122813381FC01EA52FF4F00832F
:103D2000118322833383FB01E652FF4F008111810F
:103D300022813381FC01E652FF4F008311832283ED
:103D40003383FB01E252FF4F0081118122813381D5
:103D5000FC01E252FF4F0083118322833383FB0176
:103D6000EE51FF4F20813181FC01EE51FF4F318335
:103D70002083FB01EC51FF4F20813181FC01EC518C
:103D8000FF4F31832083FB01EA51FF4F2081FC016B
:103D9000EA51FF4F2083FB01E951FF4F2081FC01D5
:103DA000E951FF4F2083FB01E851FF4F2081FC01C7
:103DB000E851FF4F2083FB01E751FF4F2081FC01B9
:103DC000E751FF4F2083FB01E651FF4F2081FC01AB
:103DD000E651FF4F2083FB01E551FF4F2081FC019D
:103DE000E551FF4F2083FB01E451FF4F20813181DA
:103DF000FC01E451FF4F31832083FB01E251FF4F6F
:103E000020813181FC01E251FF4F31832083FB018E
:103E1000E051FF4F20813181FC01E051FF4F3183A0
:103E20002083FB01EE50FF4F20813181FC01EE50D9
:103E3000FF4F31832083FB01EC50FF4F0081118144
:103E400022813381FC01EC50FF4F008311832283D8
:103E50003383FB01E850FF4F0081118122813381C0
:103E6000FC01E850FF4F0083118322833383FB0161
:103E7000E450FF4F20813181FC01E450FF4F31833A
:103E80002083FB01E250FF4F20813181FC01E25091
:103E9000FF4F318320831F910F910895EF92FF927E
:103EA0000F931F93CF93DF93CDB7DEB7C251D140AD
:103EB0000FB6F894DEBF0FBECDBF67E87EE0CE013F
:103EC00001960E94EE1D6BE878E0CE01835F9E4F65
:103ED0000E94B63D64E978E0CE01895F9E4F0E9462
:103EE000B63D66E878E0CE018F5F9E4F0E94B63DFA
:103EF0008BEBE82E89E0F82E8E010F5F1F4F20E03C
:103F0000AE01435F5E4FBE01695F7E4FCE018F5FA2
:103F10009E4F0E94D630CE018F5F9E4F0E94B13DD2
:103F2000CE01895F9E4F0E94B13DCE01835F9E4FBF
:103F30000E94B13DC8010E94CE3A67E87FE0C80107
:103F40000E94EE1D6AE878E0CE01835F9E4F0E94DA
:103F5000B63D63E978E0CE01895F9E4F0E94B63D91
:103F60006CE978E0CE018F5F9E4F0E94B63D9AEBE0
:103F7000E92E99E0F92E29E0AE01435F5E4FBE01C4
:103F8000695F7E4FCE018F5F9E4F0E94D630CE017B
:103F90008F5F9E4F0E94B13DCE01895F9E4F0E9470
:103FA000B13DCE01835F9E4F0E94B13DC8010E948A
:103FB000CE3A0091AC10F090AE101091AF1061EAC3
:103FC00078E0CE0101960E94B63D63E080E00E9459
:103FD000934482E193E00E94724463E080E00E9497
:103FE0009344CE0101960E94FD448F2D0E943D43D3
:103FF000801303C08EE093E002C08AE093E00E9449
:104000007244111107C063E088E00E9493448CEA77
:1040100098E006C063E088E00E9493448FE499E052
:104020000E94F844CE0101960E94B13D00912211F8
:10403000F09024111091251166EA78E0CE010196E6
:104040000E94B63D63E089E00E94934485E293E0DC
:104050000E94724463E089E00E949344CE0101967D
:104060000E94FD448F2D0E943D43801303C081E2D6
:1040700093E002C08DE193E00E947244112339F075
:1040800063E081E10E9493448FE499E006C063E01D
:1040900081E10E9493448CEA98E00E94F844CE01AA
:1040A00001960E94B13DCE5EDE4F0FB6F894DEBFA2
:1040B0000FBECDBFDF91CF911F910F91FF90EF9079
:1040C0000895CF92DF92EF92FF920F931F93CF93B9
:1040D000DF9380910602882361F08BE69BE00E94CB
:1040E000B3290E94CD440E9468310E944E1F109255
:1040F00006022091E40B3091E50B4091E60B5091C4
:10410000E70B6091E00B7091E10B8091E20B9091D5
:10411000E30B0E94AC61882379F10E94CD44C090EA
:10412000E00BD090E10BE090E20BF090E30B2091DC
:10413000D80B3091D90B4091DA0B5091DB0BC701B2
:10414000B6010E94CA5E87FD7AC02091DC0B3091D7
:10415000DD0B4091DE0B5091DF0BC701B6010E94D1
:10416000AC6118160CF46BC0C092E40BD092E50B56
:10417000E092E60BF092E70BCDEEDBE08BE9F82E58
:10418000FE0192918F018881981789F00E94683111
:10419000F8018081FE0133979081891708F45CC093
:1041A000FE0132979081981708F456C088832696AE
:1041B000FCE0C131DF0721F760E089E00E94934411
:1041C00084E393E00E94724460E089E00E9493449B
:1041D00082E393E00E9472446091990970919A0978
:1041E00080919B0990919C090E940E5ECB010E94D8
:1041F000A23080E393E00E94724460919D09709127
:104200009E0980919F099091A0090E940E5ECB01AA
:104210000E94A23080919911811103C085E099E03C
:1042200002C08EEA98E00E94F844DF91CF911F917E
:104230000F91FF90EF90DF90CF900C944E1F80E095
:1042400090E8A6EAB3E48093E40B9093E50BA09387
:10425000E60BB093E70B90CFF882A9CFCF92DF9215
:10426000EF92FF926C018AE0C816D10424F488E032
:1042700093E00E9472440D2C000CEE08FF08F7FE3C
:104280000CC08DE20E945E4366277727CB016C1934
:104290007D098E099F094AE003C04AE0C701B601C3
:1042A000FF90EF90DF90CF900C946943FF920F93B3
:1042B0001F93CF93DF9380E090E02CE3FC01E85163
:1042C000F44F12822383069684329105B9F78091C8
:1042D0009D0B882309F446C084EE8093BC00809136
:1042E000BC0087FFFCCF80ED8093BB0084EC809303
:1042F000BC008091BC0087FFFCCF1092BB0084EC17
:104300008093BC008091BC0087FFFCCF84EE80933B
:10431000BC008091BC0087FFFCCF81ED8093BB0087
:1043200084EC8093BC008091BC0087FFFCCFE6E961
:10433000FBE094EC9093BC008091BC0087FFFCCF25
:104340008091BB0081935BE0ED39F50799F784E834
:104350008093BC008091BC0087FFFCCF84E98093F0
:10436000BC0066C080ED0E943A450E94254580E071
:104370000E9469450E94254581ED0E943A450E94B0
:104380002545C0E0D0E060E08091950B0E949B46FF
:1043900007E010E0F12C61E08091940B0E946B46E5
:1043A0008091950B0E9442469927002E01C0880FEC
:1043B0000A94EAF7F82A60E08091940B0E946B4619
:1043C0000150110940F7FE01EC56F44FF28261E012
:1043D0008091950BC630D10549F00E949B4660E064
:1043E0008091940B0E946B4660E008C00E949B463F
:1043F00060E08091940B0E946B4661E08091950B88
:104400000E946B4661E08091940B0E946B4660E0D5
:104410008091940B0E946B4660E08091950B0E9406
:104420009B462196C730D10509F0ADCF0E940B45C0
:104430008091960B382F3695369536953E70932F92
:10444000990F990F390F8F70380F8091970B482F64
:104450004695469546954E70942F990F990F490FA2
:104460008F70480F8091980B282F2F7087FF09C0FD
:1044700085FB992790F9822FECE09E9F800D1124F7
:1044800009C08073869586958695982F990F990F08
:10449000890F820F5091990B20919A0B90919B0B51
:1044A00060919C0B762F72957F706F70EAE07E9F13
:1044B000600D112470E06053784F80938C0B409313
:1044C0008D0B30938E0B822F8695869586958E70F8
:1044D000382F330F330F830F2F70280F20938F0B3C
:1044E000892F8695869586958E70282F220F220F0C
:1044F000820F9F70980F9093900B7093920B609324
:10450000910B5093930B605D86E09CE00E94773E98
:104510006091900B80E09CE00E94773E60918F0B51
:104520008AEF9BE00E94773E60918C0B84EF9BE0CA
:104530000E94773E60918D0B8EEE9BE00E94773E4D
:1045400060918E0B88EE9BE00E94773EE9E2FAE0F4
:1045500080E090E0DC01A851B44F14962C91219397
:10456000069684329105B1F7DF91CF911F910F919B
:10457000FF900895FC01808191810C94D0620F938B
:104580001F93CF93DF93EC010E941147088119819B
:104590002A813B81601B710B820B930BDF91CF91C2
:1045A0001F910F910895CF92DF92EF92FF920F9398
:1045B0001F93CF93DF93CDB7DEB761970FB6F89413
:1045C000DEBF0FBECDBF80E090E0A4E3B3EC8093EC
:1045D000D80B9093D90BA093DA0BB093DB0B80E050
:1045E00090E0A8ECB2E48093DC0B9093DD0BA093F9
:1045F000DE0BB093DF0B8091A80B9091A90B0E946A
:10460000752940E06CEC8091A80B9091A90B0E9459
:104610001B3B4091A30B64E48091A80B9091A90BE4
:104620000E941B3B8091A50B882339F1E091A40BDC
:10463000E950E33040F4F0E0EE0FFF1FEB5BFC4F7E
:104640000081118102C00EEE12E08091A20B811157
:1046500007C08EE99BE00E94834281E08093A20B19
:104660008EE99BE00E94BF2220E030E0061717078A
:104670002807390710F41092A20B60E0CE010A96C9
:104680000E944E42811107C0C12CD12CFEEFEF2EAB
:10469000F2ECFF2E4BC0BE016F5F7F4FCE010A963A
:1046A0000E945B41882359F1698148E0649FB00111
:1046B00011248A81282F30E0322F2227330F330F25
:1046C000330F262B372B8A858031E1F4688570E023
:1046D0008F81AB01481B5109CA019695982F8827F5
:1046E000979587950E94915C60517109207F53E0F6
:1046F000220F331F5A95E1F7620F731F04C060E861
:1047000074EE01C0B901613854EE75070CF4BCCFEA
:10471000072E000C880B990B0E94B36120E030E05B
:1047200040E05CE30E9412626B017C0120E030E01B
:104730004EEF52ECC701B6010E94AC61181654F45A
:1047400020E030E04AEA52E4C701B6010E94CA5EA6
:1047500087FD18C020E030E040E251E460918C1108
:1047600070918D1180918E1190918F110E942B5D0F
:10477000AB01BC0186ED9BE00E94AC3E81E08093E2
:10478000C51108C0B701A60186ED9BE00E94AC3EB2
:104790001092C51161960FB6F894DEBF0FBECDBF63
:1047A000DF91CF911F910F91FF90EF90DF90CF900D
:1047B0000895CF93DF93EC010E94114768837983BA
:1047C0008A839B83DF91CF9108954F925F926F927E
:1047D0007F928F929F92AF92BF92CF92DF92EF9291
:1047E000FF920F931F93CF93DF93CDB7DEB7C450E3
:1047F000D1400FB6F894DEBF0FBECDBFE0910902E5
:104800008E2FEE0F990BAA0BBB0BFC01F197E93031
:10481000F10508F038C48827ED56FF4F8F4F0C94F0
:10482000E65C0E9461202FC467E87EE002C067E872
:104830007FE0CE0101960E94EE1DCE0101960E94FE
:10484000301DCE0101960E94CE3A1DC467E87EE07D
:1048500002C067E87FE0CE0101960E94EE1DCE0106
:1048600001960E94E11BEDCF409091105090921064
:104870006090931070909410C090A310D090A410EA
:10488000E090A510F090A6100091B4101091B51012
:1048900020918C1130918D1140918E1150918F117A
:1048A000C701B6010E942B5D4B015C01A30192017F
:1048B0000E942A5DCF5FDE4F688379838A839B8362
:1048C000C150D14064EB78E0CE0101960E94B63D24
:1048D00063E070E0CE0101960E94BF1BCE010196FD
:1048E0000E94B13D80910602882371F082E798E032
:1048F0000E94F844C80101960E94D03082EB98E0F3
:104900000E94F844109206020E94A11B01E010E0F0
:1049100080919609909197092091BC093091BD0929
:10492000800F911F281739070CF4C90182309105B7
:10493000A9F08330910549F1019709F04BC0602F30
:1049400080E00E94934486EB93E00E947244C5018C
:10495000B4010E94AC4384EB93E014C0602F80E06C
:104960000E94934487EA93E00E947244CF5FDE4F37
:10497000688179818A819B81C150D1400E94AC437A
:1049800085EA93E00E94724425C0602F80E00E9477
:10499000934480EA93E00E94724420E030E0A90151
:1049A000C701B6010E94CA5E87FD04C08EE993E08C
:1049B0000E947244C701B6010E94AC4363E089E0E3
:1049C0000E94934486E993E00E947244C301B201BD
:1049D0000E94AC430F5F1F4F0430110509F098CFC0
:1049E00052C34090071150900811609009117090C7
:1049F0000A11C0901911D0901A11E0901B11F0907B
:104A00001C1100912A1110912B11209188113091C5
:104A1000891140918A1150918B11C701B6010E94F2
:104A20002B5D4B015C01A30192010E942B5DCF5FC6
:104A3000DE4F688379838A839B83C150D14066ECC3
:104A400078E0CE0101960E94B63D63E070E0CE01B1
:104A500001960E94BF1BCE0101960E94B13D80913C
:104A60000602882371F082E798E00E94F844C801AA
:104A700001960E94D03082EB98E00E94F844109298
:104A800006020E94A11B01E010E08091960990911E
:104A900097092091BC093091BD09800F911F2817FB
:104AA00039070CF4C90182309105A9F083309105D2
:104AB00049F1019709F04BC0602F80E00E949344B8
:104AC00084EE93E00E947244C501B4010E94AC439D
:104AD00082EE93E014C0602F80E00E94934485ED45
:104AE00093E00E947244CF5FDE4F688179818A81B2
:104AF0009B81C150D1400E94AC4383ED93E00E9462
:104B0000724425C0602F80E00E9493448EEC93E0B5
:104B10000E94724420E030E0A901C701B6010E9462
:104B2000CA5E87FD04C08CEC93E00E947244C7010A
:104B3000B6010E94AC4363E089E00E94934484EC98
:104B400093E00E947244C301B2010E94AC430F5F24
:104B50001F4F0430110509F098CF95C268ED78E039
:104B6000CE0101960E94B63D64E070E0CE01019650
:104B70000E94BF1BCE0101960E94B13D80910602AA
:104B80008111109206020E94A11B01E010E08091A9
:104B90009609909197092091BC093091BD09800F29
:104BA000911F281739070CF4C9018230910509F4C7
:104BB00069C094F5019709F0D1C0602F80E00E9490
:104BC00093448CE194E00E9472448091870C909110
:104BD000880C0E942E218AE194E00E947244809108
:104BE000890C90918A0C0E942E2188E194E00E9409
:104BF00072448091030D9091040D0E942E2186E154
:104C000094E00E9472448091050D9091060D0E94DF
:104C10002E2180911F0C93C08330910509F461C04F
:104C2000049709F09BC0602F80E00E94934488EFB6
:104C300093E00E9472448091FB0D9091FC0D0E94C4
:104C40002E2186EF93E00E9472448091FD0D909199
:104C5000FE0D0E942E2184EF93E00E947244809109
:104C6000870C9091880C0E942E2182EF93E00E9485
:104C700072448091890C90918A0C0E942E2180911F
:104C8000930D5DC0602F80E00E94934480E194E02A
:104C90000E9472448091030D9091040D0E942E2178
:104CA0008EE094E00E9472448091050D9091060D73
:104CB0000E942E218CE094E00E94724480917F0D2E
:104CC0009091800D0E942E218AE094E00E9472440F
:104CD0008091810D9091820D0E942E2180919B0CDC
:104CE0002EC0602F80E00E94934484E094E00E94F4
:104CF000724480917F0D9091800D0E942E2182E060
:104D000094E00E9472448091810D9091820D0E94E6
:104D10002E2180E094E00E9472448091FB0D9091DE
:104D2000FC0D0E942E218EEF93E00E947244809130
:104D3000FD0D9091FE0D0E942E218091170D813066
:104D400049F028F0823051F484EF98E005C08AEEF3
:104D500098E002C08FEE98E00E94F8440F5F1F4F6A
:104D60000430110509F013CF8EC180919911811182
:104D700003C069EF78E004C0813081F46BE079E032
:104D8000CE0101960E94B63D64E070E0CE0101962E
:104D90000E94BF1BCE0101960E94B13D8091060288
:104DA0008111109206020E94A11B01E010E0809187
:104DB0009609909197092091BC093091BD09800F07
:104DC000911F281739070CF4C9012091991121115D
:104DD0009BC08230910509F451C034F5019709F068
:104DE0004CC1602F80E00E94934484E794E00E94CD
:104DF000724460913F0C7091400C8091410C9091F5
:104E0000420C0E94AC4382E794E00E94724460919D
:104E1000510C7091520C8091530C9091540C0E9443
:104E2000AC438FE694E0C8C08330910509F449C0D3
:104E3000049709F022C1602F80E00E94934483E52B
:104E400094E00E9472446091B30D7091B40D809112
:104E5000B50D9091B60D0E94AC4381E594E00E949F
:104E600072446091C50D7091C60D8091C70D9091EF
:104E7000C80D0E94AC438EE494E0F7C0602F80E040
:104E80000E94934489E694E00E9472446091BB0CB6
:104E90007091BC0C8091BD0C9091BE0C0E94AC43F3
:104EA00087E694E00E9472446091CD0C7091CE0C24
:104EB0008091CF0C9091D00C0E94AC4384E694E09A
:104EC000A4C0602F80E00E9493448EE594E00E948D
:104ED00072446091370D7091380D8091390D909129
:104EE0003A0D0E94AC438CE594E00E9472446091BC
:104EF000490D70914A0D80914B0D90914C0D0E947F
:104F0000AC4389E594E0AAC0213009F0B6C08230F4
:104F1000910509F458C034F5019709F0AEC0602F2F
:104F200080E00E94934488E494E00E94724460917F
:104F3000630C7091640C8091650C9091660C0E94DA
:104F4000AC4386E494E00E9472446091750C7091C9
:104F5000760C8091770C9091780C0E94AC4383E49E
:104F600094E02AC08330910509F456C0049709F0F3
:104F700084C0602F80E00E94934487E294E00E9406
:104F800072446091B30D7091B40D8091B50D909104
:104F9000B60D0E94AC4385E294E00E947244609199
:104FA000C50D7091C60D8091C70D9091C80D0E94DE
:104FB000AC4382E294E059C00E9472448091830C19
:104FC0009091840C58C0602F80E00E9493448DE340
:104FD00094E00E9472446091DF0C7091E00C80912B
:104FE000E10C9091E20C0E94AC438BE394E00E94B0
:104FF00072446091F10C7091F20C8091F30C9091DD
:10500000F40C0E94AC4388E394E00E9472448091C7
:10501000FF0C9091000D2FC0602F80E00E94934400
:1050200082E394E00E9472446091370D7091380DD4
:105030008091390D90913A0D0E94AC4380E394E049
:105040000E9472446091490D70914A0D80914B0D00
:1050500090914C0D0E94AC438DE294E00E9472440A
:1050600080917B0D90917C0D06C00E9472448091CE
:10507000F70D9091F80D0E94D0300F5F1F4F043054
:10508000110509F094CECC5FDE4F0FB6F894DEBF69
:105090000FBECDBFDF91CF911F910F91FF90EF9089
:1050A000DF90CF90BF90AF909F908F907F906F9048
:1050B0005F904F900895089521E001C0220F6A95F6
:1050C000EAF7DC011C962C931C971A965C934E937E
:1050D0001997ED91FC910484F585E02D60E0199419
:1050E000DC01ED91FC910684F785E02D41E01995F6
:1050F00081E090E008950895089585ED8093BC00C7
:105100008091BC0084FDFCCF10920D120895409157
:10511000040A262F30E0240F311D21323105DCF442
:1051200020910D122430C9F4FC0180E090E0861734
:1051300058F43091040A2191DC01AE51B64FA30F0F
:10514000B11D2C930196F3CF8091040A680F6093F0
:10515000040A80E0089581E0089582E008950895AA
:10516000E091950980919409E81730F4F0E0E95353
:10517000FE4E808190E008958FEF9FEF089590910B
:10518000950980919409981750F4E92FF0E0E953BC
:10519000FE4E208130E09F5F9093950902C02FEF73
:1051A0003FEFC90108958091940990E020919509FD
:1051B000821B91090895CF92DF92EF92FF920F9395
:1051C0001F93CF93DF937C01262F972F8A01809125
:1051D000E109882391F0C62FD72F6E01C40ED51E8A
:1051E000CC15DD0571F06991D701ED91FC9101902D
:1051F000F081E02DC7011995F3CF642F822F0E9413
:105200008728C801DF91CF911F910F91FF90EF90F8
:10521000DF90CF900895CF93DF931F92CDB7DEB785
:1052200069832091E1092223D1F02091E009203205
:1052300040F021E030E0FC013383228380E090E005
:1052400015C08091DF09E82FF0E0E154F64F998115
:1052500090838F5F8093DF098093E00905C061E050
:10526000CE0101960E94872881E090E00F90DF91A7
:10527000CF9108950895862F0C944246862F642F6F
:105280000C946B46862F642F0C949B46FC019081F6
:105290000180F281E02D892F809560FF12C0F89483
:1052A0002281822382838181892B8183A3E2B0E0E2
:1052B0001197F1F78281982B9283789487ED90E093
:1052C00011C0F8942281822382838181892B81837A
:1052D000AFEFB0E01197F1F78281982B9283789429
:1052E0008FE090E00197F1F70895FC019081018033
:1052F000F281E02DF8948181292F209582238183EA
:1053000078948DE743E050E0815021F1DA01119764
:10531000F1F730813923C1F3F894828182238283AB
:105320008181892B81837894ABE7B7E01197F1F7FE
:10533000F894818128232183A3E1B1E01197F1F74B
:105340008081982381E009F080E07894E3E6F6E03C
:105350003197F1F70895DC01ED91FC910684F78512
:10536000E02D40E0199461E00E94AB298BE39FE1BE
:105370000197F1F708950F931F93CF93DF93EC01FB
:10538000423018F08C8188608C834F836887222399
:1053900029F0413019F48C8184608C8364E670E0DC
:1053A00080E090E00E94D7466C8164FD31C0E881C6
:1053B000F9810684F785E02D42E063E0CE0119957E
:1053C0008BE496E40197F1F7E881F9810684F7858B
:1053D000E02D42E063E0CE01199503E512E0C8013B
:1053E0000197F1F7E881F9810684F785E02D42E025
:1053F00063E0CE011995C8010197F1F7E881F981C1
:105400000684F785E02D42E062E0CE01199517C0D1
:105410006062CE010E94AB298BE496E40197F1F71C
:105420006C816062CE010E94AB2903E512E0C801E5
:105430000197F1F76C816062CE010E94AB29C8012F
:105440000197F1F76C816062CE010E94AB298BEE6F
:1054500090E00197F1F784E08D836CE0CE010E942B
:10546000AB29CE010E94B32982E08E8366E0CE0193
:105470000E94AB29E881F9810484F585E02D6FEF66
:10548000CE01DF91CF911F910F9119941F920F922E
:105490000FB60F9211240BB60F922F933F934F9399
:1054A0005F936F937F938F939F93AF93BF93EF938C
:1054B000FF938091B900887F803609F49CC068F51D
:1054C000883209F45BC090F4803109F454C038F498
:1054D000882309F4F6C0883009F44DC0F6C088313D
:1054E00009F44CC0803209F45DC0EFC0803409F487
:1054F00068C048F4803309F455C0883309F0E5C02A
:1055000080930B12D8C0803509F44FC0883509F458
:105510005DC0883409F0D9C0D6C0883909F4C7C045
:10552000A8F4883709F467C038F4883609F463C0F2
:10553000803709F460C0C9C0883809F4B8C0803920
:1055400009F45FC0803809F0C0C05BC0803B09F43B
:1055500086C038F4803A09F466C0883A09F47FC0FE
:10556000B4C0803C09F4A7C0883C09F4A4C0883BBF
:1055700009F48AC0AAC08091081210C090910A1242
:1055800080910912981770F5E0910A1281E08E0F50
:1055900080930A12F0E0E951FE4E80818093BB00B7
:1055A00085EC86C080930B128EC0E0910A1281E0D8
:1055B0008E0F80930A128091BB00F0E0E951FE4EFD
:1055C000808390910A12809109126EC0E0910A12B4
:1055D00081E08E0F80930A128091BB00F0E0E951C8
:1055E000FE4E808380910C1281116DC081E080930A
:1055F000071284EA61C083E080930D121092280A9A
:10560000CFCF8091280A803208F051C0E091280A5B
:1056100081E08E0F8093280A8091BB00F0E0E85F64
:10562000F54F8083BDCF85EC8093BC0010920D12A6
:105630008091280A803230F4E091280AF0E0E85F97
:10564000F54F10826091280A70E0E091060AF0910F
:10565000070A88E09AE019951092280A36C084E07B
:1056600080930D121092050A1092040AE091020A2A
:10567000F091030A19958091040A811105C081E017
:105680008093040A1092E209E091050A81E08E0FEE
:105690008093050AF0E0EE51F64F80818093BB00C5
:1056A0009091050A8091040A981708F479CF85E84B
:1056B0008093BC000AC085EC8093BC0010920D1250
:1056C00004C010920B120E947D28FF91EF91BF91B0
:1056D000AF919F918F917F916F915F914F913F918A
:1056E0002F910F900BBE0F900FBE0F901F9018952B
:1056F0002091E0099091BE09213208F04AC08091C2
:105700000D128111FCCF32E030930D1231E0309355
:105710000C123FEF30930B1210920A1220930912D1
:10572000AFEBB9E047EE51E1FA013E2F341B3217DF
:1057300018F43D913193F9CF10920812209108127C
:10574000990F922B9093081290910712913061F467
:1057500010920712909108129093BB009091BC0098
:1057600093FDF8CF95EC01C095EE9093BC0090911D
:105770000D129230E1F390910B129F3F79F08091DE
:105780000B12803241F080910B12803331F084E0B3
:1057900005C081E003C082E001C083E01092DF0910
:1057A0001092E0091092E109089581E08093E109E7
:1057B0006093BE091092DF091092E0090895CF921C
:1057C000DF92EF92FF920F931F93CF93DF937C01B1
:1057D00081E090E002C0880F991F6A95E2F7E70127
:1057E000C358DF4F442329F028813981822B932B22
:1057F00006C08095909528813981822393239983CF
:105800008883C880D980870101591F4FF701E55867
:10581000FF4F6081C8010E94D52BD801ED91FC910A
:105820000190F081E02D6C2DC8011995F701E45825
:10583000FF4F8081823048F0D801ED91FC910190BA
:10584000F081E02D6D2DC8011995C8010E94782BBB
:10585000C882D982DF91CF911F910F91FF90EF9075
:10586000DF90CF900895CF93DF93FC012381222313
:10587000B1F0EC018181809568236083628188EDBD
:105880009AE00E94D52B688188ED9AE00E940B294E
:1058900088ED9AE00E94782B282F30E002C020E0AB
:1058A00030E081E090E0232B11F080E090E0DF9188
:1058B000CF910895EF92FF920F931F93CF938C0196
:1058C000FC01759684E0C0E060FF02C09081C92BA6
:1058D0006695815031968111F7CF413011F4F8016E
:1058E0004489F8018585C82BC42B7801FEE0EF0EB2
:1058F000F11CF80162896C2BC7010E94332CF8015E
:10590000628960956C23C701CF911F910F91FF9021
:10591000EF900C94332C0F931F93CF93DF93062FAC
:105920000F70423019F440E0602F10C0142F262F62
:10593000EC0130E0B90184E0759567958A95E1F74F
:10594000CE010E945A2C412F602FCE01DF91CF91C2
:105950001F910F910C945A2CFC0184858823A9F087
:10596000218532852115310519F4611106C007C062
:105970002130310521F4611102C0858701C01586EF
:105980006585CF010E960C94332C0895862F4132F5
:1059900008F040E2642F0E94904210929509809393
:1059A00094090895CF92DF92EF92FF920F931F9385
:1059B000CF93DF9301E010E002C0000F111F6A9542
:1059C000E2F77C012FE6E20EF11C6C01ECE7CE0E53
:1059D000D11CF601408150E03197608170E0C70131
:1059E0000E94C62CC7010E94BF28EC01F6018081ED
:1059F000823040F0C7010E94BF2820E030E0382FFD
:105A0000C22BD32BC023D12381E090E0C017D10754
:105A100011F080E090E0DF91CF911F910F91FF9006
:105A2000EF90DF90CF90089510929509109294090D
:105A30001092DF091092E00910920D1281E080931C
:105A40000C121092071261E084E10E946B4661E043
:105A500085E10E946B46E9EBF0E080818E7F8083D8
:105A600080818D7F808388E48093B80085E4809373
:105A7000BC000895FF920F931F93CF93DF93EC0127
:105A8000162F042FF22E8B85888B88ED9AE00E94CA
:105A9000142D688988ED9AE00E94D52B88ED9AE054
:105AA0000E94782B91E0811190E0998B992329F045
:105AB00088ED9AE00E94BF288E878989882339F073
:105AC0001F861C8260E0CE010E960E94332C2F2D83
:105AD000402F612FCE01DF91CF911F910F91FF9049
